:03000000021E736A
:0C1E7300787FE4F6D8FD758166021EBA87
:0C000300000000000000000000000000F1
:0B268800EF1FAC0670011E4C70F62224
:1023780090642C120EC390642C74FF120E90EC4DD6
:042388004E4F601242
:10238C009064307456F0906430E0FF14F0EF60E22B
:02239C0080F4CB
:01239E00221C
:1024840090642C120EC390642C74FF120E90EC4DC9
:0E2494004E4F60097F6F7E0412268880E92279
:101BCD00907120E04480F07F057E001226887F0012
:101BDD007E007D007C0012248475A75575AC5C9049
:101BED0071327450F09071307403F0907136742F1F
:101BFD00F090715C7403F090715BE054FCF07F1811
:101C0D00EF2466FDE434718D82F583E4F00FEFB4BB
:101C1D0033EE904011E4935407FF90711CE054F89B
:101C2D004FF0904017E493547FFF90711DE0548066
:101C3D004FF0904010E493FF5401C433333354807C
:101C4D00FE907123E0547F4EF0EFC313543F444098
:101C5D00FFA3E054804FF0904012E493FF540FFE29
:101C6D00907146E054F04EF0EFC4540FFF90714F59
:101C7D00E054F04FF0904013E493543FFF907140C7
:101C8D00E054C04FF0904014E493907126F09040D2
:101C9D0015E493907128F0904016E49390712AF01A
:011CAD002214
:1025690078D2E254FBF2E24404F2907187E4F0D2AB
:022579009122AD
:1024A20078D2E254FBF2E24404F2907187E4F078CD
:0D24B200D0E24402F208E24402F2D291228C
:1024BF0078D2E254EFF2E24410F2907188E4F078AF
:0D24CF00D0E24404F208E24404F2D292226A
:1024DC0078C2E254FBF2E24404F290717FE4F078AB
:0D24EC00C0E24402F208E24402F2C2812282
:10257B0078E3E254FEF2E24401F2907192E4F0C28D
:02258B00A42288
:10258D0078E3E254FBF2E24404F2907193E4F0C27A
:02259D00A52275
:1024F90078E3E254EFF2E24410F2907194E4F07858
:0D250900E0E24440F208E24440F2C2A622A3
:0D25D20078C3E254CFF278C0E24440F22218
:0D25DF0078C3E2543FF278C0E24480F2225B
:0D25EC0078D2E254FCF278D0E24401F222F1
:0D25F90078D2E2543FF278D0E24408F2229A
:0D26060078D3E254FCF278D0E24410F222C6
:0D26130078D3E254F3F278D0E24420F222B2
:0D26200078D3E2543FF278D0E24480F222F9
:0D262D0078E2E254F3F278E0E24402F22297
:0D263A0078E2E254CFF278E0E24404F222AC
:0D26470078E2E2543FF278E0E24408F2222B
:0D26540078E3E2543FF278E0E24480F222A5
:0D26610078F2E254FCF278F0E24401F2223B
:0D266E0078F2E254F3F278F0E24402F22236
:1000420078D3E254FCF2E24401F290718AE0440374
:0B005200F075F60175F59F75F21122A4
:0D267B00E5F430E4FB8FF7E5F430E4FB22DA
:1024650012265430A704D2038002C20378E3E25453
:0F2475003FF2E24440F29071957411F00223C2DD
:10000F0078E2E254F3F2E24404F290718F7410F04C
:03001F000223E3D6
:0B26930012259F907195E4F0C2A72271
:0B269E001225B090718FE4F0C2A12261
:0926BF009071957411F00226A936
:0926C80090718F7410F00226B429
:1023C20075D1017895E4F21874BAF27897E4F218AC
:1023D200745DF2789174A0F218740EF2E244A0F2E5
:0123E20022D8
:0B26A9007890E2541FF2E244C0F222DD
:10259F007890E2541FF2E244A0F27892E4F208F24B
:0125AF002209
:102533007C007DBA120F06E47BE87A03F9F8120DEA
:0A2543006CAC06EC7897F218EFF28A
:01254D00226B
:1023E30075D10278A1E4F21874BAF278A3E4F21872
:1023F300745DF2789D74A0F218740EF2E244A0F2B8
:0124030022B6
:0B26B400789CE2541FF2E244C0F222C6
:1025B000789CE2541FF2E244A0F2789EE4F208F222
:0125C00022F8
:10254E007C007DBA120F06E47BE87A03F9F8120DCF
:0A255E006CAC06EC78A3F218EFF263
:012568002250
:0920F40044644D00000000C10825
:1024040075D104907105E4F09071047495F09071A5
:102414000174A0F09071007415F0E044A0F0D2AF04
:012424002295
:1025C100907100E0541FF0E044C0F043A901D2AF84
:0125D10022E7
:10242500907100E0541FF0E044A0F0907102E4F0D8
:10243500A3F053A9FE90644D120ECF0000000022B8
:030024000219D8E6
:1019D800C0E0C0F0C083C082C0D075D000C000C0D5
:0D19E80001C002C003C004C005C006C00756
:1019F500907101E020E703021AC6E04480F090648C
:101A05004D120E66EF2401FFE43EFEE43DFDE43C8D
:101A1500FC90644D120EC3906024E024FD604F14C9
:101A25006003021ABC2008051226C8D20890602A55
:101A3500E0FEA3E0FFC3906026E09F906025E09E56
:101A45005025E47F1EFEFDFC90644D120E82C312EC
:101A55000E2F406D90644D120ECF00000000906077
:101A650025E475F0018039906024E4F08053D3902B
:101A75006026E09400906025E09400402EE47F1EEF
:101A8500FEFDFC90644D120E82C3120E2F40329063
:101A9500644D120ECF0000000090602574FFF5F034
:101AA500120CFFAFF0FE12254E801612269E906096
:101AB50024E4F0C208800A90644D120ECF000000A5
:011AC5000020
:101AC600D007D006D005D004D003D002D001D00074
:0B1AD600D0D0D082D083D0F0D0E0321E
:0520FD0042602E00000E
:10231B0078D3E24430F2907123E054D8F0E054BF0C
:10232B00F0E0441EF09071227407F075990E7869F5
:0F233B00E24448F27F017E007D007C0002248492
:10239F007869E24401F2786BE230E1FA7402F2AF4D
:1023AF0093EF75F010A4FFAEF0E594C4540FFDEF5A
:0323BF004DFF22AD
:101AE100E490642DF0A3120ECF0000000090643248
:101AF100120ECF00000000906436120ECF000000DD
:101B01000090643A120ECF0000FFFFE490642DF0C4
:101B110012239FE4FCFD90642E120EC390642DE00D
:101B2100C394024051906436120E6690642E120ED8
:101B310082D3120E2F400C90642E120E66906436E2
:101B4100120EC390643A120E6690642E120E82C376
:101B5100120E2F500C90642E120E6690643A120EE3
:101B6100C3906432120E6690642E120E82120D150D
:101B7100906432120EC390642DE004F0E0C394141B
:101B8100408E906432120E66906436120E82120DEF
:101B910022906432120EC3906432120E6690643A3F
:101BA100120E82120D22906432120EC39064321210
:101BB1000E667804120E4090642E120EC390642EAD
:0B1BC100120E6690602EEEF0A3EFF015
:011BCC0022F6
:092102004264510000C104C10552
:1025160012261312231B121AE190602EE0FFA3E08D
:0D252600906451CFF0A3EFF0A29592042233
:08187C00906428EEF0A3EFF0E8
:10188400E4A3F0A3F0121AE130050FD390602FE027
:1018940094C890602EE09400403690602FE0246459
:1018A400FF90602EE03400FED3906452E09F906479
:1018B40051E09E501E90602FE0249CFF90602EE02B
:1018C40034FFFEC3906452E09F906451E09E400355
:1018D40002197790602EE0FFA3E0906451CFF0A34B
:1018E400EFF090602EE0FEA3E0FF7C027DBC120FBF
:1018F40006E47B6C7A07F9F8120D6C90642AEEF01A
:10190400A3EFF020030A906027E06004E0B401181C
:10191400D390642BE094BC90642AE0940240267433
:1019240002F0A374BCF0801D906027E0B40216D3CB
:1019340090642BE0945890642AE094024007740267
:10194400F0A37458F0D390602FE0946490602EE07C
:041954009400507536
:10195800E490642CF0F0121AE1D390602FE09464C4
:1019680090602EE0940050028001C34007C20590A9
:101978006428805690642CE004F0E0C3940340D6B9
:10198800906027E090642AB40208E4F0A37432F06F
:101998008006E4F0A37464F0D20590642AE0FEA304
:1019A800E0FF7C077D6C120C987C027DBC120CAAAF
:1019B80090602EE0FCA3E0FD120CAA906451EEF0BA
:0319C800A3EFF09A
:0C19CB008002C20590642AE0FEA3E0FF49
:0119D70022ED
:10050B00E4906424F0A3F0A3F030950630040302CA
:10051B0009583095462004437F0A7E007D007C00FD
:10052B00122484209503020958300403020958A2AF
:10053B00959204E4906025F0A3F0FFFE1225339012
:10054B006025E0FEA3E0FF12254E12269312269E95
:10055B00C200C205D202E4FF02229C3095030205C1
:10056B00EA30047B7F0A7E007D007C0012248430FD
:10057B0095030209582004030209582003069060D2
:10058B0027E070051226C8804F906027E0B4010267
:10059B00800A906027E0B402081226C81226BF809A
:1005AB0037906027E0B4033090602AE0FEA3E0FFB1
:1005BB00906025EEF0A3EFF012254E1226C8E490C2
:1005CB006027F0D3906026E09464906025E094005F
:1005DB005004D2028002C202D200E4FF12229CA27B
:1005EB00959204121AE1300512D390602FE094C853
:1005FB0090602EE09400500302095890602FE02485
:10060B0064FF90602EE03400FED3906452E09F9024
:10061B006451E09E501E90602FE0249CFF90602E52
:10062B00E034FFFEC3906452E09F906451E09E4023
:10063B000302095890602EE0FFA3E0906451CFF0C5
:10064B00A3EFF090602EE0FEA3E0FF7C027DBC12D6
:10065B000F06E47B6C7A07F9F8120D6C906425EEAB
:10066B00F0A3EFF020030A906027E06004E0B401F0
:10067B0018D3906426E094BC906425E09402402645
:10068B007402F0A374BCF0801D906027E0B40216D6
:10069B00D3906426E09458906425E094024007744C
:1006AB0002F0A37458F0D390602FE0946490602E06
:0506BB00E09400507105
:1006C000E4906427F0F0121AE1D390602FE0946474
:1006D00090602EE0940050028001C34003C20522C6
:1006E000906427E004F0E0C3940A40DA906027E0C9
:1006F000906425B40208E4F0A37432F08006E4F0BC
:10070000A37464F0D205906425E0FEA3E0FF7C07AB
:100710007D6C120C987C027DBC120CAA90602EE0BD
:0F072000FCA3E0FD120CAA906451EEF0A3EFF0E1
:10072F008002C205906425E0FEA3E0FF12187C90C2
:10073F006425EEF0A3EFF02003030207EC20000383
:10074F00020958906425E0FCA3E0FD906025E0FECF
:10075F00A3E0FFC39DEE9C503320000D12254E12D7
:10076F0026C8D200E4FF12229C906025E475F001A8
:10077F00120CFFAFF0FE12254E906025E0FFA3E0B4
:10078F0090602ACFF0A3EFF0C202804C906425E076
:10079F00FEA3E0FFD3906026E09F906025E09E408F
:1007AF002074FFF5F0120CFFAFF0FE12254E906093
:1007BF0025E0FFA3E090602ACFF0A3EFF0D20280F4
:1007CF0017906425E0FEA3E0FF906025E06E7003B4
:1007DF00A3E06F7003020958D20002094A300303E5
:1007EF0002094A906027E07061906425E0FEA3E063
:1007FF00FFC3906026E09F906025E09E501AE4753D
:10080F00F001120CFFAFF0FE12254E906025E0FFB5
:10081F00A3E090602A020903906425E0FEA3E0FFA5
:10082F00D3906026E09F906025E09E500302095808
:10083F0074FFF5F0120CFFAFF0FE12254E906025FD
:10084F00E0FFA3E090602A020943906027E0640173
:10085F007060906425E0FEA3E0FFC3906026E09FE8
:10086F00906025E09E5019E475F001120CFFAFF077
:10087F00FE122533906025E0FFA3E090602880747E
:10088F00906425E0FEA3E0FFD3906026E09F906088
:10089F0025E09E500302095874FFF5F0120CFFAFCC
:1008AF00F0FE122533906025E0FFA3E09060280250
:1008BF000943906027E064026003020958906425A1
:1008CF00E0FEA3E0FFC3906026E09F906025E09ECE
:1008DF00502BE475F001120CFFAFF0FE1225339090
:1008EF006025E0FEA3E0FF12254E906025E0FFA3F8
:1008FF00E090602CCFF0A3EFF0C202803E90642511
:10090F00E0FEA3E0FFD3906026E09F906025E09E7D
:10091F00403774FFF5F0120CFFAFF0FE1225339045
:10092F006025E0FEA3E0FF12254E906025E0FFA3B7
:10093F00E090602CCFF0A3EFF0D2027F1E7E007DFF
:09094F00007C001223780207333A
:01095800227C
:10002700121BCD75D95590715EE04403F075D9BBAD
:0600370075D9DD0217146B
:10210B0044644400000000416448004464490000FA
:02211B000000C2
:0926D10012004212240402251635
:10006000AF1BAE1AAD19AC18906424120EC3906485
:1000700028120ECF00000000906424120E66EC4D92
:100080004E4F70030202E4906448E060030202E411
:100090007F4BFEFDFCA3120E82C3120E2F40030203
:1000A00002E4906428120ECF000000007F207EA1A1
:1000B0007D077C00906428120E82C3120E2F40032D
:1000C00002014B7F0A7E007D007C001224841224F2
:1000D00045AF1BAE1AAD19AC18906424120E82C342
:1000E000120E2F7066906449120E66EF2401FFE431
:1000F0003EFEE43DFDE43CFC906449120EC3E47F07
:1001000004FEFDFC906424120E82C3120E2F703B7D
:100110007F0212229CE47F4BFEFDFC906449120E8C
:1001200082D3120E2F40089064487401F0801C9016
:100130006428120E66EF2401FFE43EFEE43DFDE478
:100140003CFC906428120EC30200ACE47F4BFEFD21
:10015000FC906449120E82D3120E2F40099064481D
:100160007401F00202E4906449120ECF0000000016
:10017000E47F08FEFDFC906424120E82C3120E2F51
:10018000702CE4FFFEFDFC906424120E82C3120E5C
:100190002F700302050A122445AF1BAE1AAD19AC2D
:1001A00018906424120EC37F0112229C80D4E47F35
:1001B00004FEFDFC906424120E82C3120E2F702CDC
:1001C000E4FFFEFDFC906424120E82C3120E2F6029
:1001D00018122445AF1BAE1AAD19AC189064241246
:1001E0000EC37F0212229C80D7D20122E47F01FE3F
:1001F000FDFC906424120E82C3120E2F702CE4FFBB
:10020000FEFDFC906424120E82C3120E2F700302B6
:10021000050A122445AF1BAE1AAD19AC1890642420
:10022000120EC37F0312229C80D4E4FF7E08FDFCE3
:10023000906424120E82C3120E2F702CE4FFFEFD78
:10024000FC906424120E82C3120E2F700302050A62
:10025000122445AF1BAE1AAD19AC18906424120ECF
:10026000C37F0412229C80D4E4FF7E04FDFC9064D2
:1002700024120E82C3120E2F702CE4FFFEFDFC90A0
:100280006424120E82C3120E2F700302050A122478
:1002900045AF1BAE1AAD19AC18906424120EC37F83
:1002A0000512229C80D4E4FF7E02FDFC906424129F
:1002B0000E82C3120E2F702CE4FFFEFDFC9064240E
:1002C000120E82C3120E2F700302050A122445AFCC
:1002D0001BAE1AAD19AC18906424120EC37F06121F
:1002E000229C80D4906448E0640160030204DCFF37
:1002F000FEFDFC906424120E82C3120E2F700302C6
:1003000004DC906424120E66906444120EC3E47FF1
:1003100004FEFDFC906424120E82C3120E2F6003B3
:1003200002050AE4FFFEFDFC906424120E82C31253
:100330000E2F70030204D3122445AF1BAE1AAD1961
:10034000AC18906424120EC330033F3000333002E7
:1003500011C3906026E094BC906025E09402501395
:100360008049D3906026E09464906025E09400403A
:10037000028050906025E0FEA3E0FF12254E0204AB
:10038000C03000030204C00204BC3003030204C0F6
:10039000906027E07047300218C3906026E094BC5C
:1003A000906025E0940240030204C0E475F00180EF
:1003B00016D3906026E09464906025E0940050038A
:1003C0000204C074FFF5F0120CFFAFF0FE12254ED0
:1003D000906025E0FFA3E090602A0204AE906027C1
:1003E000E06401705A30022CC3906026E094BC9007
:1003F0006025E0940240030204C0E475F001120C91
:10040000FFAFF0FE122533906025E0FFA3E090607F
:10041000280204AED3906026E09464906025E094B6
:100420000050030204C074FFF5F0120CFFAFF0FEA1
:10043000122533906025E0FFA3E0906028806F9044
:100440006027E06402706E300233C3906026E0944F
:1004500058906025E094025067E475F001120CFF9B
:10046000AFF0FE122533906025E0FEA3E0FF1225D9
:100470004E906025E0FFA3E090602C8031D3906027
:1004800026E09432906025E09400403474FFF5F04B
:10049000120CFFAFF0FE122533906025E0FEA3E0C2
:1004A000FF12254E906025E0FFA3E090602CCFF076
:1004B000A3EFF0800B906027E0B40304D201D202D6
:1004C0007F0212229C7F1E7E007D007C001223781A
:1004D000020323300203C20222D20222906448E0C7
:1004E000B40127E4FFFEFDFC906424120E82C312C7
:1004F0000E2F7016906448F0A3120ECF000000007B
:0A050000906444120ECF00000000CA
:01050A0022CE
:10234A00000009C4006400C80101F4004B000A003F
:10235A0000010F0405060000009600020096000323
:0E236A00009600090096000A0096000B006421
:10118500E4FF74FA2FF582E43463F583E0C3940831
:10119500400302123674FA2FF582E43463F583E0D6
:1011A500C39404504478C2C000E2FE74FA2FF5825D
:1011B500E43463F583E025E0FDF87403088002C399
:1011C50033D8FCF45ED000F278C2C000E2FE74FAB7
:1011D5002FF582E43463F583E025E0FDF874030818
:1011E5008002C333D8FC02139878C3C000E2FE74B2
:1011F500FA2FF582E43463F583E024FC25E0FDF85D
:101205007403088002C333D8FCF45ED000F278C3BF
:10121500C000E2FE74FA2FF582E43463F583E0241E
:10122500FC25E0FDF87403088002C333D8FC0213E3
:101235009874FA2FF582E43463F583E0C39408507B
:10124500030212FC74FA2FF582E43463F583E0C3DC
:10125500941040030212FC74FA2FF582E43463F50E
:1012650083E0C3940C504878D2C000E2FE74FA2F94
:10127500F582E43463F583E024F825E0FDF8740392
:10128500088002C333D8FCF45ED000F278D2C000E7
:10129500E2FE74FA2FF582E43463F583E024F82541
:1012A500E0FDF87403088002C333D8FC0213987874
:1012B500D3C000E2FE74FA2FF582E43463F583E0CF
:1012C50024F425E0FDF87403088002C333D8FCF448
:1012D5005ED000F278D3C000E2FE74FA2FF582E406
:1012E5003463F583E024F425E0FDF87403088002F7
:1012F500C333D8FC02139874FA2FF582E43463F5EE
:1013050083E0C39414504778E2C000E2FE74FA2FDC
:10131500F582E43463F583E024F025E0FDF87403F9
:10132500088002C333D8FCF45ED000F278E2C00036
:10133500E2FE74FA2FF582E43463F583E024F025A8
:10134500E0FDF87403088002C333D8FC804578E3D8
:10135500C000E2FE74FA2FF582E43463F583E024DD
:10136500EC25E0FDF87403088002C333D8FCF45E75
:10137500D000F278E3C000E2FE74FA2FF582E4347F
:1013850063F583E024EC25E0FDF87403088002C3CF
:1013950033D8FC4ED000F20FEF64066003021187CC
:0113A5002225
:03005D0002225725
:10225700C0E0C0F0C083C082C0D075D000C000C04D
:1022670001C002C003C004C005C006C0077881E2F0
:1022770030E607E24440F212207FD007D006D005AF
:10228700D004D003D002D001D000D0D0D082D083E8
:05229700D0F0D0E032A0
:1021C200D2AF43AB0843B6C0907132E04440F04313
:1021D200AB087877743FF208744BF2787A7430F275
:1021E200788914F27871744FF2187427F278727445
:1021F200A8F2087410F208E4F208F208F2787E7489
:0F220200D0F2087404F208741EF2087402F2227B
:03003F0002221189
:10221100C0E0C0F0C083C082C0D075D000C000C093
:1022210001C002C003C004C005C006C007907153BD
:10223100E030E707E04480F01226DAD007D006D07C
:1022410005D004D003D002D001D000D0D0D082D0AC
:0622510083D0F0D0E03262
:101D4900E4FBEB25E025E02460F582E43423F58308
:101D5900740193FF74FA2BF582E43463F583EFF091
:101D6900EB25E025E02462F582E43423F583E4934E
:101D7900FE740193FFEB25E02418F582E43464F541
:101D890083EEF0A3EFF0EB25E024DCF582E4346385
:101D9900F583E4F0A37441F0E47F01FEFDFC74FADD
:101DA9002BF582E43463F583E0F9F8120E53E53F2D
:101DB9004FFFE53E4EFEE53D4DFDE53C4C8F3F8E28
:101DC9003E8D3DF53C0BEB64066003021D4B121181
:071DD90085121CAE0221C2BD
:101714001226D1121D4912246512000F3003031240
:1017240025C112244512006012050B3001F4C201D8
:101734003003353000119060247403F0C200E4FFDC
:1017440012229CD20280DB9060247404F0D200E464
:10175400FF12229C90602AE07004A3E06464700489
:10176400D20280BEC20280BA906027E06403703661
:1017740090602AE0FEA3E0FF906025EEF0A3EFF076
:1017840012254E1226C8E4906027F0D200FF1222E0
:101794009C906025E07004A3E064647004D202802D
:1017A40081C202021726906027E07049906028E009
:1017B400FFA3E0906025CFF0A3EFF0E4FFFE122535
:1017C4004E12269E906025E0FEA3E0FF1225331200
:1017D40026BF9060277401F0D200E4FF12229C908F
:1017E4006025E07004A3E064647005D20202172649
:1017F400C202021726906027E06401704490602CB6
:10180400E0FEA3E0FF906025EEF0A3EFF012253395
:10181400906025E0FEA3E0FF12254E1226C89060DA
:10182400277402F0D200E4FF12229C906025E0703D
:1018340004A3E064647005D202021726C2020217F0
:1018440026906027E064026003021726906025F06A
:10185400A3F0FFFE122533906025E0FEA3E0FF1203
:10186400254E12269E1226939060277403F0C20020
:08187400E4FF12229C0217267A
:10229C00E490642CF0A3F0A20033C43333335480A5
:1022AC00FEEFC454F04EFD90642CF0E4A3F0AF05A7
:1022BC00EFF4FF90642CE0F0A3E04FF07FA5122622
:1022CC007B90642CE0FF12267B90642CA3E0FF0231
:0222DC00267B5F
:10211D00C103C101C1004160240041602703C10218
:10212D00426025000042602A02BC42602802BC4287
:04213D00602C0258B8
:1021410041604801426049000041604B0041604CE0
:0E2151000041604D0041604E7F42604FFFFF35
:1022DE00E4F561AE3EAD3DAC3C853F178E168D15D7
:1022EE008C14787EE254FCF2E24514F218E515F2F5
:1022FE0018E516F218E517F2787FE254FBF2E25475
:0D230E00FB4404F2E24401F27F01021EFFD5
:100F330090642CEFF0E0FF24E8F582E43463F5835A
:100F4300E004F074F42FF582E43463F583E4F07481
:100F5300E82FF582E43463F583E0C395635003021D
:100F6300118490642CE0FB24E8F582E43463F58378
:100F7300E4F090235B93640160030211357F01FE6B
:100F8300FDFC74FA2BF582E43463F583E0F9F8127F
:100F93000E53E51F4FF51FE51E4EF51EE51D4DF5DE
:100FA3001DE51C4CF51CAF1FAE1EAD1DFC780112D8
:100FB3000E40EF5455FBEE5455FAED5455F9EC54ED
:100FC30055F8C3E51F9BF53BE51E9AF53AE51D99D8
:100FD300F539E51C98F538AF3BAE3AAD39FC7802EC
:100FE300120E40EF5433FBEE5433FAED5433F9EC65
:100FF3005433F8E53B5433FFE53A5433FEE53954B3
:1010030033FDE5385433FCEB2FF53BEA3EF53AE983
:101013003DF539E83CF538AF3BAE3AAD39FC7804E1
:10102300120E40EF253BFFEE353AFEED3539FDEC70
:101033003538FCEF540FF53BEE540FF53AED540FF2
:10104300F539EC540FF538AF3BAE3AAD39FC7808BF
:10105300120E40EF253BFFEE353AED3539FDEC3509
:1010630038EFF53BE4F53AEDF539E4F538AE3AAC53
:10107300387810120E40EF253BFFEE353AFEEFF5C0
:101083003BEEF53AE4F539F53890642CE025E0249D
:1010930000F582E43464F583E0FEA3E0D39553EED8
:1010A3009552402490642CE0FF25E02400F582E46F
:1010B3003464F583E0F552A3E0F55374FA2FF58217
:1010C300E43463F583E0F56490235BE493FFE4FC8D
:1010D300FDFEAB3BAA3AA939A838D3120E2F4052D2
:1010E300AF650565D3EF94037480948050030211B8
:1010F30084E4F565F51FF51EF51DF51C7F01FEFD66
:10110300FCA964A801120E538F1B8E1A8D198C181B
:10111300E47F01FEFDFCA801120E538F338E328D46
:10112300318C30E4F552F553756420121F83433735
:101133000222E4F5657F01FEFDFC90642CE0FB24B4
:10114300FAF582E43463F583E0F9F8120E53E51BF4
:101153004FF51BE51A4EF51AE5194DF519E5184C2F
:10116300F518E47F01FEFDFCA803120E53E5334F8F
:10117300F533E5324EF532E5314DF531E5304CF5D9
:02118300302218
:10095900E4F56690235FE493FFE566C39F400302D5
:100969000C97E56625E02400F582E4346085828AE7
:100979007F548F8B7E0E8E8C758903758889E56609
:1009890025E02400F582E4346085828A8F8B758C9A
:1009990012758904758889E56625E02418F582E4CD
:1009A9003460F583E0FCA3E0C3950FEC950E502E5F
:1009B900E56625E0243CF582E43460F583E0FCA398
:1009C900E0C39513EC95125015AF600560EF9402E2
:1009D90074809480400BE4F5605337FD8003E4F59F
:1009E90060E53730E125E56625E02400F582E43449
:1009F90064F583E4F0A3F0E56625E0240CF582E4D0
:100A09003464F583E4F0A3F0020AA7E56625E0243F
:100A190018F582E4346085828A8E8B758C0A758913
:100A2900267588892088FDE5F130E00875F107E42D
:100A3900F50AF50BAE0AE50B7802C333CE33CED8EF
:100A4900F9FFE56625E02400F582E43464F583EED8
:100A5900F0A3EFF0E56625E0243CF582E4346085F7
:100A6900828A758B12758C0A758927758889208801
:100A7900FDE5F130E00875F107E4F50AF50BAE0A7A
:100A8900E50B7802C333CE33CED8F9FFE56625E00E
:100A9900240CF582E43464F583EEF0A3EFF0E56607
:100AA90025E02418F582E43464F583E0FEA3E078B8
:100AB90002CEC313CE13D8F9F5518E50E56625E061
:100AC9002400F582E43464F583E0FEA3E0FF90237B
:100AD90057E493FC740193FDC3EF9DEE9C4017E529
:100AE9006625E0240CF582E43464F583E0FEA3E096
:100AF900C39DEE9C50028068E56625E02400F582DE
:100B0900E43464F583E0FEA3E0C39551EE955040CB
:100B19001CE56625E0240CF582E43464F583E0FEE7
:100B2900A3E0C39551EE95504003020BB374EE2533
:100B390066F582E43463F583E004F074EE2566F526
:100B490082E43463F583E0FF90235CE493FEEFD302
:100B59009E406474EE2566F582E43463F583E4F01F
:100B6900E56625E0240CF582E43460F583E0FEA314
:100B7900E0FFE56625E02418F582E43460F583EEAC
:100B8900F0A3EFF0E56625E02430F582E43460F562
:100B990083E0FEA3E0FFE56625E0243CF582E4342A
:100BA90060F583EEF0A3EFF0800D74EE2566F58213
:100BB900E43463F583E4F0E56625E0240CF582E48A
:100BC900346085828AE56625E02400F582E4346094
:100BD90085828B758C0A7589207588CB2088FDE5FF
:100BE900F130E00875F107E4F50AF50BE56625E053
:100BF900240CF582E4346085828A758B547F0E8FCC
:100C09008C7589237588897E0A8E8A8F8BE566257E
:100C1900E0240CF582E4346085828CE4F5897588DA
:100C290029E56625E02430F582E4346085828AE589
:100C39006625E02400F582E4346085828B8E8C750C
:100C490089207588CB2088FDE5F130E00875F1072A
:100C5900E4F50AF50BE56625E02430F582E4346015
:100C690085828A758B547F0E8F8C75892475888946
:100C7900758A0A8F8BE56625E02430F582E43460B5
:0F0C890085828CE4F589758829056602095C224D
:1013A600E4F56690235FE493FFE566C39F4003027E
:1013B600155EE56625E02418F582E43464F583E0DD
:1013C600FEA3E07802CEC313CE13D8F9F5518E50A2
:1013D600E56625E02400F582E43464F583E0FEA3A7
:1013E600E0D39551EE9550402EE56625E0240CF5A8
:1013F60082E43464F583E0FEA3E0D39551EE955084
:10140600401574F42566F582E43463F583E4F0AFA1
:1014160066120F3302155990235EE493FFC3E5511C
:101426009FFFE5509400FED3EF9400EE9400400237
:1014360080047E007F00E56625E02400F582E43422
:1014460064F583E0FCA3E0C39FEC9E400302154CC9
:1014560090235EE493FFC3E5519FFFE5509400FEA1
:10146600D3EF9400EE9400400280047E007F00E5F6
:101476006625E0240CF582E43464F583E0FCA3E001
:10148600C39FEC9E400302154C74E82566F582E482
:101496003463F583E4F074F42566F582E43463F589
:1014A60083E004F074F42566F582E43463F583E0A2
:1014B600C39563500302155974F42566F582E43426
:1014C60063F583E4F07F01FEFDFC74FA2566F58280
:1014D600E43463F583E0F9F8120E53120DFEE51FAE
:1014E6005FF51FE51E5EF51EE51D5DF51DE51C5C41
:1014F600F51CE47F01FEFDFCA966A801120E53123D
:101506000DFEE5335FF533E5325EF532E5315DF527
:1015160031E5305CF530E47F01FEFDFC74FA2566AA
:10152600F582E43463F583E0F9F8120E53120DFEEA
:10153600E51B5FF51BE51A5EF51AE5195DF519E57C
:10154600185CF518800D74F42566F582E43463F5AD
:0915560083E4F005660213A922EA
:101F8300E4F56690235FE493FFE566C39F506EE537
:101F93006625E02400F582E43464F583E4F0A3F0DD
:101FA300E56625E0240CF582E43464F583E4F0A3CC
:101FB300F0E56625E0240CF582E43460F583E0FE69
:101FC300A3E0FFE56625E02418F582E43460F58399
:101FD300EEF0A3EFF0E56625E02430F582E434600B
:101FE300F583E0FEA3E0FFE56625E0243CF582E40B
:0E1FF3003460F583EEF0A3EFF00566808622E1
:101DE000E4F56690235FE493FFE566C39F50679038
:101DF0006048E0FF7E00C39410748094805053EFDD
:101E00009408748094804025E56625E02400F582DE
:101E1000E43460F583E0FEA3E0FFE56625E0240CF2
:101E2000F582E43460F583EE8FF0120CFFE5662551
:101E3000E02400F582E43460F583E0FEA3E0FFE5F2
:101E40006625E02430F582E43460F583EE8FF012ED
:101E50000CFF0566808D906048E0C39410748094F8
:101E60008040054337048006906048E004F07F011D
:031E7000021EFF50
:10200100E4FFFEFDFCAB1BAA1AA919A818C3120E06
:102011002F606390604AE004F07006906049E0042C
:10202100F0902353E493FE740193FF4E602ED390FE
:10203100604AE09F906049E09E4021E4F0A3F0F502
:102041001FF51EF51DF51CF533F532F531F530F5AB
:102051001BF51AF519F518C207021F83902355E4E1
:1020610093FE740193FFD390604AE09F906049E032
:0D2071009E400AD20722E4906049F0A3F0DF
:01207E00223F
:05155F0090643FEFF075
:10156400A3E0FCA3E0FDA3E0FEA3E0F5298E288D13
:10157400278C267884E2F50A08E2F50B758A08754B
:101584008B26758C2275881D2088FDE4FFFEFDFCEA
:10159400AB25AA24A923A822D3120E194006AC22F3
:1015A400A8048013AF25AE24AD23AC22120E0BABDE
:1015B40007AA06A905A80490604FE0FEA3E0FFE493
:1015C400FCFDC3120E195041E4FFFEFDFCAB25AA3D
:1015D40024A923A822120E194006AF25AE24800B9D
:1015E400AF25AE24AD23AC22120E0B90604FEEF06B
:1015F400A3EFF090643FE025E024DCF582E434635B
:10160400F583E0A3E090604EF0902350E493FE74E1
:101614000193FFD3906050E09F90604FE09E501B79
:1016240090643FE025E024DCF582E43463F583E054
:10163400A3E090604EF090604B8079E4FFFEFDFCE7
:10164400AB25AA24A923A822D3120E1940349064EE
:101654003FE0FF25E024DCF582E43463F583E0FC1D
:10166400A3E0D39400EC9400404DEF25E024DCF596
:1016740082E43463F58374FFF5F0120CFF90604C40
:10168400803290643FE0FF25E024DCF582E434639B
:10169400F583E0FCA3E0C3947FEC94005019EF259C
:1016A400E024DCF582E43463F583E475F001120C84
:1016B400FF90604D7401F090604CE064017011A3E0
:1016C400E06401700B90604CF0A3F090604B04F068
:1016D40090604BE06401703590604EE0FF90643F91
:1016E400E025E024DCF582E43463F583E4F0A3EF41
:1016F400F074FF90604FF0A3F090604E747FF0E4BC
:0F17040090604CF0A3F090604BF07F01227F00CB
:0117130022B3
:10216000E490643EF090234A120E727801120E53EE
:10217000906440120EC3AF6112155FEF60220561DB
:10218000E53730E4095337EF90643E7401F0902353
:102190005FE493FFE561C39F4006E4F561433710B8
:1021A000C390234E7401939562E493940040089089
:1021B000643EE064017005D2060222DEE4FF121ED6
:0121C000FF1F
:0121C10022FB
:101EFF00EF70607F01FEFDFC74FA2561F582E4341A
:101F0F0063F583E0F9F8120E538F178E168D158C2B
:101F1F0014787EE254FCF2E24514F218E515F2183B
:101F2F00E516F218E517F2E56125E024DCF582E409
:101F3F003463F583E0A3E0547FFF7878E254804F59
:101F4F00F2787FE254FBF2E254FB4404F2E24401E4
:101F5F00F2801CE56125E024DCF582E43463F5832F
:101F6F00E0A3E0547FFF7878E254804FF2787FE26D
:041F7F004402F22204
:101CAE00E4906424F0A3F0906424E0FEA3E0FFC36C
:101CBE009488EE94035031EF2459FFEE34098F824D
:101CCE00F583E493FF906425E02451FD906424E0B5
:101CDE0034608D82F583EFF0906425E004F070C7D8
:081CEE00906424E004F080BFC3
:101CF6009063D97401F0A37460F0A37451F0E4F515
:101D060061F537F536F535F534C206C207F51FF528
:101D16001EF51DF51CF533F532F531F530F51BF5DD
:101D26001AF519F51890235993FF90235DE493FE55
:101D3600A807088002C333D8FCF563756420E4FF66
:031D4600021EFF7B
:10207F007884E2F50A08E2F50BAE0A7803CEC313B3
:10208F00CE13D8F97802C333CE33CED8F9FFE5613A
:10209F0025E02400F582E43460F583EEF0A3EFF041
:1020AF0020060F902352E4937005D2060222DE021F
:1020BF002160056190235FE493FFE561C39F401F9B
:1020CF00787FE254FBF2E254FB4404F2E24401F263
:1020DF00E4F561E53720E203021DE0433701227F7B
:0520EF0001121EFF229A
:0526DA00056202200171
:10244500E53730E01A9063D9A3E0FAA3E0F9120F5B
:10245500001213A6E4F5617F01121EFF5337FE2219
:101E7F00020027E493A3F8E493A34003F68001F252
:101E8F0008DFF48029E493A3F85407240CC8C33364
:101E9F00C4540F4420C8834004F456800146F6DF33
:101EAF00E4800B01020408102040809020F4E47EAF
:101EBF00019360BCA3FF543F30E509541FFEE49328
:101ECF00A360010ECF54C025E060A840B8E493A3EF
:101EDF00FAE493A3F8E493A3C8C582C8CAC583CA1A
:101EEF00F0A3C8C582C8CAC583CADFE9DEE780BED2
:01215F00007F
:100C9800EF8DF0A4A8F0CF8CF0A428CE8DF0A42E70
:020CA800FE222A
:100CAA00BC000BBE0029EF8DF084FFADF022E4CC2E
:100CBA00F875F008EF2FFFEE33FEEC33FCEE9DECF7
:100CCA00984005FCEE9DFE0FD5F0E9E4CEFD22ED3D
:100CDA00F8F5F0EE8420D21CFEADF075F008EF2F87
:100CEA00FFED33FD4007985006D5F0F222C398FD78
:050CFA000FD5F0EA2215
:100CFF00C5F0F8A3E028F0C5F0F8E5821582700280
:060D0F001583E038F0221C
:0D0D1500EF2BFFEE3AFEED39FDEC38FC222D
:0E0D2200C3EF9BFFEE9AFEED99FDEC98FC22CC
:100D300075F008758200EF2FFFEE33FECD33CDCC7A
:100D400033CCC58233C5829BED9AEC99E5829840FD
:100D50000CF582EE9BFEED9AFDEC99FC0FD5F0D6DA
:100D6000E4CEFBE4CDFAE4CCF9A88222B800C1B904
:100D70000059BA002DEC8BF084CFCECDFCE5F0CB42
:100D8000F97818EF2FFFEE33FEED33FDEC33FCEB7B
:100D900033FB10D703994004EB99FB0FD8E5E4F936
:100DA000FA227818EF2FFFEE33FEED33FDEC33FC23
:100DB000C933C910D7059BE99A4007EC9BFCE99A17
:100DC000F90FD8E0E4C9FAE4CCFB2275F010EF2F5C
:100DD000FFEE33FEED33FDCC33CCC833C810D7075C
:100DE0009BEC9AE899400AED9BFDEC9AFCE899F897
:0E0DF0000FD5F0DAE4CDFBE4CCFAE4C8F9222A
:0D0DFE00CFF4CFCEF4CECDF4CDCCF4CC228A
:0E0E0B00C3E49FFFE49EFEE49DFDE49CFC22F8
:100E1900EB9FF5F0EA9E42F0E99D42F0EC6480C850
:060E290064809845F022F0
:100E2F00EB9FF5F0EA9E42F0E99D42F0E89C45F019
:010E3F002290
:100E4000E8600FECC313FCED13FDEE13FEEF13FF90
:030E5000D8F122B4
:100E5300E8600FEFC333FFEE33FEED33FDEC33FCFD
:030E6300D8F122A1
:0C0E6600E0FCA3E0FDA3E0FEA3E0FF22FF
:100E7200E493FC740193FD740293FE740393FF22C6
:0C0E8200E0F8A3E0F9A3E0FAA3E0FB22F3
:100E8E007401FF3395E0FEFDFCA3A3A3E0CF2FF08A
:100E9E00E582158270021583E0CE3EF0E582158262
:100EAE0070021583E0CD3DF0E58215827002158348
:050EBE00E0CC3CF02235
:0C0EC300ECF0A3EDF0A3EEF0A3EFF022A2
:100ECF00A8828583F0D083D082120EE6120EE6122E
:100EDF000EE6120EE6E473E493A3C583C5F0C58353
:100EEF00C8C582C8F0A3C583C5F0C583C8C582C86D
:010EFF0022D0
:060F00008A838982E4737C
:100F0600EC8EF0A4CCC5F0CCCDF8EFA4CEC5F02D78
:100F1600FDE43CFCE8A42EC8C5F03DFDE43CFCEF36
:0D0F2600A4FFE5F028FEE43DFDE43CFC22C4
:00000001FF
