:03000000021EB429
:0C1EB400787FE4F6D8FD758166021EFB05
:0C000300000000000000000000000000F1
:0B26D000EF1FAC0670011E4C70F622DC
:1023C00090642C120ECC90642C74FF120E99EC4D7C
:0423D0004E4F6012FA
:1023D4009064307456F0906430E0FF14F0EF60E2E3
:0223E40080F483
:0123E60022D4
:1024CC0090642C120ECC90642C74FF120E99EC4D6F
:0E24DC004E4F60097F6F7E041226D080E922E9
:101C0E00907120E04480F07F057E001226D07F0088
:101C1E007E007D007C001224CC75A75575AC5C90BF
:101C2E0071327450F09071307403F0907136742FDD
:101C3E00F090715C7403F090715BE054FCF07F18CF
:101C4E00EF2466FDE434718D82F583E4F00FEFB47A
:101C5E0033EE904011E4935407FF90711CE054F85A
:101C6E004FF0904017E493547FFF90711DE0548025
:101C7E004FF0904010E493FF5401C433333354803B
:101C8E00FE907123E0547F4EF0EFC313543F444057
:101C9E00FFA3E054804FF0904012E493FF540FFEE8
:101CAE00907146E054F04EF0EFC4540FFF90714F18
:101CBE00E054F04FF0904013E493543FFF90714086
:101CCE00E054C04FF0904014E493907126F0904091
:101CDE0015E493907128F0904016E49390712AF0D9
:011CEE0022D3
:1025B10078D2E254FBF2E24404F2907187E4F0D263
:0225C100912265
:1024EA0078D2E254FBF2E24404F2907187E4F07885
:0D24FA00D0E24402F208E24402F2D2912244
:1025070078D2E254EFF2E24410F2907188E4F07866
:0D251700D0E24404F208E24404F2D2922221
:1025240078C2E254FBF2E24404F290717FE4F07862
:0D253400C0E24402F208E24402F2C2812239
:1025C30078E3E254FEF2E24401F2907192E4F0C245
:0225D300A42240
:1025D50078E3E254FBF2E24404F2907193E4F0C232
:0225E500A5222D
:1025410078E3E254EFF2E24410F2907194E4F0780F
:0D255100E0E24440F208E24440F2C2A6225B
:0D261A0078C3E254CFF278C0E24440F222CF
:0D26270078C3E2543FF278C0E24480F22212
:0D26340078D2E254FCF278D0E24401F222A8
:0D26410078D2E2543FF278D0E24408F22251
:0D264E0078D3E254FCF278D0E24410F2227E
:0D265B0078D3E254F3F278D0E24420F2226A
:0D26680078D3E2543FF278D0E24480F222B1
:0D26750078E2E254F3F278E0E24402F2224F
:0D26820078E2E254CFF278E0E24404F22264
:0D268F0078E2E2543FF278E0E24408F222E3
:0D269C0078E3E2543FF278E0E24480F2225D
:0D26A90078F2E254FCF278F0E24401F222F3
:0D26B60078F2E254F3F278F0E24402F222EE
:1000420078D3E254FCF2E24401F290718AE0440374
:0B005200F075F60175F59F75F21122A4
:0D26C300E5F430E4FB8FF7E5F430E4FB2292
:1024AD0012269C30A704D2048002C20478E3E254C1
:0F24BD003FF2E24440F29071957411F002240A4C
:10000F0078E2E254F3F2E24404F290718F7410F04C
:03001F0002242B8D
:0B26DB001225E7907195E4F0C2A722E1
:0B26E6001225F890718FE4F0C2A122D1
:092707009071957411F00226F1A5
:0927100090718F7410F00226FC98
:10240A0075D1017895E4F21874BAF27897E4F21863
:10241A00745DF2789174A0F218740EF2E244A0F29C
:01242A00228F
:0B26F1007890E2541FF2E244C0F22295
:1025E7007890E2541FF2E244A0F27892E4F208F203
:0125F70022C1
:10257B007C007DBA120F0FE47BE87A03F9F8120D99
:0A258B0075AC06EC7897F218EFF239
:012595002223
:10242B0075D10278A1E4F21874BAF278A3E4F21829
:10243B00745DF2789D74A0F218740EF2E244A0F26F
:01244B00226E
:0B26FC00789CE2541FF2E244C0F2227E
:1025F800789CE2541FF2E244A0F2789EE4F208F2DA
:0126080022AF
:102596007C007DBA120F0FE47BE87A03F9F8120D7E
:0A25A60075AC06EC78A3F218EFF212
:0125B0002208
:0921350044644D00000000C109E2
:10244C0075D104907105E4F09071047495F090715D
:10245C000174A0F09071007415F0E044A0F0D2AFBC
:01246C00224D
:10260900907100E0541FF0E044C0F043A901D2AF3B
:01261900229E
:10246D00907100E0541FF0E044A0F0907102E4F090
:10247D00A3F053A9FE90644D120ED8000000002267
:03002400021A19A4
:101A1900C0E0C0F0C083C082C0D075D000C000C093
:0D1A290001C002C003C004C005C006C00714
:101A3600907101E020E703021B07E04480F0906408
:101A46004D120E6FEF2401FFE43EFEE43DFDE43C43
:101A5600FC90644D120ECC906024E024FD604F147F
:101A66006003021AFD200905122710D20990602C86
:101A7600E0FEA3E0FFC3906026E09F906025E09E15
:101A86005025E47F1EFEFDFC90644D120E8BC312A2
:101A96000E38406D90644D120ED800000000906024
:101AA60025E475F0018039906024E4F08053D390EA
:101AB6006026E09400906025E09400402EE47F1EAE
:101AC600FEFDFC90644D120E8BC3120E3840329010
:101AD600644D120ED80000000090602574FFF5F0EA
:101AE600120D08AFF0FE12259680161226E69060BB
:101AF60024E4F0C209800A90644D120ED80000005A
:011B060000DE
:101B0700D007D006D005D004D003D002D001D00032
:0B1B1700D0D0D082D083D0F0D0E032DC
:05213E004264510000A5
:1023630078D3E24430F2907123E054D8F0E054BFC4
:10237300F0E0441EF09071227407F075990E7869AD
:0F238300E24448F27F017E007D007C000224CC02
:1023E7007869E24401F2786BE230E1FA7402F2AF05
:1023F70093EF75F010A4FFAEF0E594C4540FFDEF12
:032407004DFF2264
:101B2200E490642DF0A3120ED800000000906432FD
:101B3200120ED800000000906436120ED800000089
:101B42000090643A120ED80000FFFFE490642DF07A
:101B52001223E7E4FCFD90642E120ECC90642DE07B
:101B6200C394024051906436120E6F90642E120E8E
:101B72008BD3120E38400C90642E120E6F90643686
:101B8200120ECC90643A120E6F90642E120E8BC31A
:101B9200120E38500C90642E120E6F90643A120E90
:101BA200CC906432120E6F90642E120E8B120D1EA8
:101BB200906432120ECC90642DE004F0E0C39414D1
:101BC200408E906432120E6F906436120E8B120D9C
:101BD2002B906432120ECC906432120E6F90643AE3
:101BE200120E8B120D2B906432120ECC90643212B4
:101BF2000E6F7804120E4990642E120ECC90642E51
:0B1C0200120E6F906451EEF0A3EFF0A3
:011C0D0022B4
:092143004264530000C105C1060D
:10255E0012265B122363121B22906451E0FFA3E04C
:0D256E00906453CFF0A3EFF0A295920522E8
:0818BD00906428EEF0A3EFF0A7
:1018C500E4A3F0A3F0121B2230060FD3906452E07C
:1018D50094C8906451E094004036906452E02464CA
:1018E500FF906451E03400FED3906454E09F90640F
:1018F50053E09E501E906452E0249CFF906451E09A
:1019050034FFFEC3906454E09F906453E09E40030F
:101915000219B8906451E0FFA3E0906453CFF0A39F
:10192500EFF0906451E0FEA3E0FF7C027DBC120F56
:101935000FE47B6C7A07F9F8120D7590642AEEF0C6
:10194500A3EFF020040A906029E06004E0B40118D8
:10195500D390642BE094BC90642AE09402402674F2
:1019650002F0A374BCF0801D906029E0B40216D388
:1019750090642BE0945890642AE094024007740226
:10198500F0A37458F0D3906452E09464906451E0ED
:0419950094005075F5
:10199900E490642CF0F0121B22D3906452E094641A
:1019A900906451E0940050028001C34007C2069040
:1019B9006428805690642CE004F0E0C3940340D678
:1019C900906029E090642AB40208E4F0A37432F02C
:1019D9008006E4F0A37464F0D20690642AE0FEA3C2
:1019E900E0FF7C077D6C120CA17C027DBC120CB35C
:1019F900906451E0FCA3E0FD120CB3906453EEF047
:031A0900A3EFF058
:0C1A0C008002C20690642AE0FEA3E0FF06
:011A180022AB
:10051400E4906424F0A3F0A3F030950630050302C0
:1005240009613095462005437F0A7E007D007C00EA
:100534001224CC209503020961300503020961A24B
:10054400959205E4906025F0A3F0FFFE12257B90C0
:100554006025E0FEA3E0FF1225961226DB1226E6B4
:10056400C200C206D203E4FF0222E430950302056E
:10057400F330057B7F0A7E007D007C001224CC30A2
:1005840095030209612005030209612004069060B5
:1005940029E07005122710804F906029E0B4010211
:1005A400800A906029E0B4020812271012270780FD
:1005B40037906029E0B4033090602CE0FEA3E0FFA4
:1005C400906025EEF0A3EFF0122596122710E49028
:1005D4006029F0D3906026E09464906025E0940054
:1005E4005004D2038002C203D200E4FF1222E4A228
:1005F400959205121B22300612D3906452E094C8DF
:10060400906451E094005003020961906452E02424
:1006140064FF906451E03400FED3906454E09F90F2
:100624006453E09E501E906452E0249CFF906451F9
:10063400E034FFFEC3906454E09F906453E09E4016
:1006440003020961906451E0FFA3E0906453CFF08A
:10065400A3EFF0906451E0FEA3E0FF7C027DBC12A6
:100664000F0FE47B6C7A07F9F8120D75906425EE90
:10067400F0A3EFF020040A906029E06004E0B401E4
:1006840018D3906426E094BC906425E0940240263C
:100694007402F0A374BCF0801D906029E0B40216CB
:1006A400D3906426E09458906425E0940240077443
:1006B40002F0A37458F0D3906452E09464906451AF
:0506C400E094005071FC
:1006C900E4906427F0F0121B22D3906452E0946402
:1006D900906451E0940050028001C34003C2062295
:1006E900906427E004F0E0C3940A40DA906029E0BE
:1006F900906425B40208E4F0A37432F08006E4F0B3
:10070900A37464F0D206906425E0FEA3E0FF7C07A1
:100719007D6C120CA17C027DBC120CB3906451E07B
:0F072900FCA3E0FD120CB3906453EEF0A3EFF0CD
:100738008002C206906425E0FEA3E0FF1218BD9077
:100748006425EEF0A3EFF02004030207F520000370
:10075800020961906425E0FCA3E0FD906025E0FEBD
:10076800A3E0FFC39DEE9C503320000D1225961286
:100778002710D200E4FF1222E4906025E475F0010E
:10078800120D08AFF0FE122596906025E0FFA3E059
:1007980090602CCFF0A3EFF0C203804C906425E06A
:1007A800FEA3E0FFD3906026E09F906025E09E4086
:1007B8002074FFF5F0120D08AFF0FE122596906038
:1007C80025E0FFA3E090602CCFF0A3EFF0D20380E8
:1007D80017906425E0FEA3E0FF906025E06E7003AB
:1007E800A3E06F7003020961D200020953300403C9
:1007F800020953906029E07061906425E0FEA3E04F
:10080800FFC3906026E09F906025E09E501AE47533
:10081800F001120D08AFF0FE122596906025E0FF5A
:10082800A3E090602C02090C906425E0FEA3E0FF91
:10083800D3906026E09F906025E09E5003020961F6
:1008480074FFF5F0120D08AFF0FE122596906025A2
:10085800E0FFA3E090602C02094C906029E064015D
:100868007060906425E0FEA3E0FFC3906026E09FDF
:10087800906025E09E5019E475F001120D08AFF064
:10088800FE12257B906025E0FFA3E090602A80742B
:10089800906425E0FEA3E0FFD3906026E09F90607F
:1008A80025E09E500302096174FFF5F0120D08AFB0
:1008B800F0FE12257B906025E0FFA3E090602A02FD
:1008C800094C906029E06402600302096190642584
:1008D800E0FEA3E0FFC3906026E09F906025E09EC5
:1008E800502BE475F001120D08AFF0FE12257B9035
:1008F8006025E0FEA3E0FF122596906025E0FFA3A7
:10090800E090602ECFF0A3EFF0C203803E90642504
:10091800E0FEA3E0FFD3906026E09F906025E09E74
:10092800403774FFF5F0120D08AFF0FE12257B90EA
:100938006025E0FEA3E0FF122596906025E0FFA366
:10094800E090602ECFF0A3EFF0D2037F1E7E007DF3
:09095800007C001223C002073CE0
:010961002273
:10002700121C0E75D95590715EE04403F075D9BB6B
:0600370075D9DD02171D62
:10214C0044644400000000416448004464490000B9
:02215C00000081
:0927190012004212244C02255E5C
:10006000AF1BAE1AAD19AC18906424120ECC90647C
:1000700028120ED800000000906424120E6FEC4D80
:100080004E4F70030202E4906448E060030202E411
:100090007F4BFEFDFCA3120E8BC3120E38400302F1
:1000A00002E4906428120ED8000000007F207EA198
:1000B0007D077C00906428120E8BC3120E3840031B
:1000C00002014B7F0A7E007D007C001224CC1224AA
:1000D0008DAF1BAE1AAD19AC18906424120E8BC3F1
:1000E000120E387066906449120E6FEF2401FFE41F
:1000F0003EFEE43DFDE43CFC906449120ECCE47FFE
:1001000004FEFDFC906424120E8BC3120E38703B6B
:100110007F021222E4E47F4BFEFDFC906449120E44
:100120008BD3120E3840089064487401F0801C9004
:100130006428120E6FEF2401FFE43EFEE43DFDE46F
:100140003CFC906428120ECC0200ACE47F4BFEFD18
:10015000FC906449120E8BD3120E3840099064480B
:100160007401F00202E4906449120ED8000000000D
:10017000E47F08FEFDFC906424120E8BC3120E383F
:10018000702CE4FFFEFDFC906424120E8BC3120E53
:1001900038700302051312248DAF1BAE1AAD19ACD3
:1001A00018906424120ECC7F011222E480D4E47FE4
:1001B00004FEFDFC906424120E8BC3120E38702CCA
:1001C000E4FFFEFDFC906424120E8BC3120E386017
:1001D0001812248DAF1BAE1AAD19AC1890642412FE
:1001E0000ECC7F021222E480D7D20222E47F01FEED
:1001F000FDFC906424120E8BC3120E38702CE4FFA9
:10020000FEFDFC906424120E8BC3120E38700302A4
:10021000051312248DAF1BAE1AAD19AC18906424CF
:10022000120ECC7F031222E480D4E4FF7E08FDFC92
:10023000906424120E8BC3120E38702CE4FFFEFD66
:10024000FC906424120E8BC3120E38700302051347
:1002500012248DAF1BAE1AAD19AC18906424120E87
:10026000CC7F041222E480D4E4FF7E04FDFC906481
:1002700024120E8BC3120E38702CE4FFFEFDFC908E
:100280006424120E8BC3120E38700302051312245D
:100290008DAF1BAE1AAD19AC18906424120ECC7F32
:1002A000051222E480D4E4FF7E02FDFC9064241257
:1002B0000E8BC3120E38702CE4FFFEFDFC906424FC
:1002C000120E8BC3120E38700302051312248DAF69
:1002D0001BAE1AAD19AC18906424120ECC7F061216
:1002E00022E480D4906448E0640160030204DCFFEF
:1002F000FEFDFC906424120E8BC3120E38700302B4
:1003000004DC906424120E6F906444120ECCE47FDF
:1003100004FEFDFC906424120E8BC3120E386003A1
:10032000020513E4FFFEFDFC906424120E8BC31241
:100330000E3870030204D312248DAF1BAE1AAD1910
:10034000AC18906424120ECC30043F3000333003DC
:1003500011C3906026E094BC906025E09402501395
:100360008049D3906026E09464906025E09400403A
:10037000028050906025E0FEA3E0FF122596020463
:10038000C03000030204C00204BC3004030204C0F5
:10039000906029E07047300318C3906026E094BC59
:1003A000906025E0940240030204C0E475F00180EF
:1003B00016D3906026E09464906025E0940050038A
:1003C0000204C074FFF5F0120D08AFF0FE1225967E
:1003D000906025E0FFA3E090602C0204AE906029BD
:1003E000E06401705A30032CC3906026E094BC9006
:1003F0006025E0940240030204C0E475F001120D90
:1004000008AFF0FE12257B906025E0FFA3E090602E
:100410002A0204AED3906026E09464906025E094B4
:100420000050030204C074FFF5F0120D08AFF0FE97
:1004300012257B906025E0FFA3E090602A806F90FA
:100440006029E06402706E300333C3906026E0944C
:1004500058906025E094025067E475F001120D0891
:10046000AFF0FE12257B906025E0FEA3E0FF122591
:1004700096906025E0FFA3E090602E8031D39060DD
:1004800026E09432906025E09400403474FFF5F04B
:10049000120D08AFF0FE12257B906025E0FEA3E070
:1004A000FF122596906025E0FFA3E090602ECFF02C
:1004B000A3EFF0800B906029E0B40304D202D203D2
:1004C0007F021222E47F1E7E007D007C001223C08A
:1004D000020323300303C20322D20322906448E0C4
:1004E000B40130E4FFFEFDFC906424120E8BC312B5
:1004F0000E38701F906448F0A3120ED80000000060
:10050000906444120ED800000000E4F51BF51AF5C3
:0305100019F518C2
:0105130022C5
:10239200000009C4006400C80101F4004B000A00F7
:1023A20000010F04050600000096000200960003DB
:0E23B200009600090096000A0096000B0096A7
:10118E00E4FF74FA2FF582E43463F583E0C3940828
:10119E00400302123F74FA2FF582E43463F583E0C4
:1011AE00C39404504478C2C000E2FE74FA2FF58254
:1011BE00E43463F583E025E0FDF87403088002C390
:1011CE0033D8FCF45ED000F278C2C000E2FE74FAAE
:1011DE002FF582E43463F583E025E0FDF87403080F
:1011EE008002C333D8FC0213A178C3C000E2FE74A0
:1011FE00FA2FF582E43463F583E024FC25E0FDF854
:10120E007403088002C333D8FCF45ED000F278C3B6
:10121E00C000E2FE74FA2FF582E43463F583E02415
:10122E00FC25E0FDF87403088002C333D8FC0213DA
:10123E00A174FA2FF582E43463F583E0C394085069
:10124E000302130574FA2FF582E43463F583E0C3C9
:10125E009410400302130574FA2FF582E43463F5FB
:10126E0083E0C3940C504878D2C000E2FE74FA2F8B
:10127E00F582E43463F583E024F825E0FDF8740389
:10128E00088002C333D8FCF45ED000F278D2C000DE
:10129E00E2FE74FA2FF582E43463F583E024F82538
:1012AE00E0FDF87403088002C333D8FC0213A17862
:1012BE00D3C000E2FE74FA2FF582E43463F583E0C6
:1012CE0024F425E0FDF87403088002C333D8FCF43F
:1012DE005ED000F278D3C000E2FE74FA2FF582E4FD
:1012EE003463F583E024F425E0FDF87403088002EE
:1012FE00C333D8FC0213A174FA2FF582E43463F5DC
:10130E0083E0C39414504778E2C000E2FE74FA2FD3
:10131E00F582E43463F583E024F025E0FDF87403F0
:10132E00088002C333D8FCF45ED000F278E2C0002D
:10133E00E2FE74FA2FF582E43463F583E024F0259F
:10134E00E0FDF87403088002C333D8FC804578E3CF
:10135E00C000E2FE74FA2FF582E43463F583E024D4
:10136E00EC25E0FDF87403088002C333D8FCF45E6C
:10137E00D000F278E3C000E2FE74FA2FF582E43476
:10138E0063F583E024EC25E0FDF87403088002C3C6
:10139E0033D8FC4ED000F20FEF64066003021190BA
:0113AE00221C
:03005D0002229FDD
:10229F00C0E0C0F0C083C082C0D075D000C000C005
:1022AF0001C002C003C004C005C006C0077881E2A8
:1022BF0030E607E24440F21220C0D007D006D00526
:1022CF00D004D003D002D001D000D0D0D082D083A0
:0522DF00D0F0D0E03258
:10220A00D2AF43AB0843B6C0907132E04440F043CA
:10221A00AB087877743FF208744BF2787A7430F22C
:10222A00788914F27871744FF2187427F2787274FC
:10223A00A8F2087410F208E4F208F208F2787E7440
:0F224A00D0F2087404F208741EF2087402F22233
:03003F0002225941
:10225900C0E0C0F0C083C082C0D075D000C000C04B
:1022690001C002C003C004C005C006C00790715375
:10227900E030E707E04480F0122722D007D006D0EB
:1022890005D004D003D002D001D000D0D0D082D064
:0622990083D0F0D0E0321A
:101D8A00E4FBEB25E025E024A8F582E43423F5837F
:101D9A00740193FF74FA2BF582E43463F583EFF050
:101DAA00EB25E025E024AAF582E43423F583E493C5
:101DBA00FE740193FFEB25E02418F582E43464F500
:101DCA0083EEF0A3EFF0EB25E024DCF582E4346344
:101DDA00F583E4F0A37441F0E47F01FEFDFC74FA9C
:101DEA002BF582E43463F583E0F9F8120E5CE53FE3
:101DFA004FFFE53E4EFEE53D4DFDE53C4C8F3F8EE7
:101E0A003E8D3DF53C0BEB64066003021D8C1211FE
:071E1A008E121CEF02220AE8
:10171D00121D8A1227191224AD12000F3004031264
:10172D00260920013412248D7F017E007D007C006E
:10173D001224CC906027E475F001120D08C390605F
:10174D0028E094D0906027E094074013D201E4F58F
:10175D001BF51AF519F518800612248D120060126A
:10176D0005143002BDC202300435300011906024E2
:10177D007403F0C200E4FF1222E4D20380A490604F
:10178D00247404F0D200E4FF1222E490602CE07087
:10179D0004A3E064647004D2038087C20380839045
:1017AD006029E06403703790602CE0FEA3E0FF90A9
:1017BD006025EEF0A3EFF0122596122710E490604D
:1017CD0029F0D200FF1222E4906025E07004A3E01E
:1017DD0064647005D20302172FC20302172F9060A5
:1017ED0029E0704990602AE0FFA3E0906025CFF0DA
:1017FD00A3EFF0E4FFFE1225961226E6906025E099
:10180D00FEA3E0FF12257B1227079060297401F0DB
:10181D00D200E4FF1222E4906025E07004A3E0649E
:10182D00647005D20302172FC20302172F9060298F
:10183D00E06401704490602EE0FEA3E0FF9060250F
:10184D00EEF0A3EFF012257B906025E0FEA3E0FF04
:10185D001225961227109060297402F0D200E4FF31
:10186D001222E4906025E07004A3E064647005D258
:10187D000302172FC20302172F906029E064026044
:10188D000302172F906025F0A3F0FFFE12257B9029
:10189D006025E0FEA3E0FF1225961226E61226DB58
:1018AD009060297403F0C200E4FF1222E402172FA6
:1022E400E490642CF0A3F0A20033C433333354805D
:1022F400FEEFC454F04EFD90642CF0E4A3F0AF055F
:10230400EFF4FF90642CE0F0A3E04FF07FA51226D9
:10231400C390642CE0FF1226C390642CA3E0FF0258
:0223240026C3CE
:10215E00C104C102C1004160240041602903C103D2
:10216E00426025000042602C02BC42602A02BC4242
:0B217E00602E0258C1014260270000E3
:1021890041604801426049000041604B0041604C98
:0E2199000041604D0041604E7F42604FFFFFED
:10232600E4F561AE3EAD3DAC3C853F178E168D158E
:102336008C14787EE254FCF2E24514F218E515F2AC
:1023460018E516F218E517F2787FE254FBF2E2542C
:0D235600FB4404F2E24401F27F01021F404B
:100F3C0090642CEFF0E0FF24E8F582E43463F58351
:100F4C00E004F074F42FF582E43463F583E4F07478
:100F5C00E82FF582E43463F583E0C3956350030214
:100F6C00118D90642CE0FB24E8F582E43463F58366
:100F7C00E4F09023A3936401600302113E7F01FE11
:100F8C00FDFC74FA2BF582E43463F583E0F9F81276
:100F9C000E5CE51F4FF51FE51E4EF51EE51D4DF5CC
:100FAC001DE51C4CF51CAF1FAE1EAD1DFC780112CF
:100FBC000E49EF5455FBEE5455FAED5455F9EC54DB
:100FCC0055F8C3E51F9BF53BE51E9AF53AE51D99CF
:100FDC00F539E51C98F538AF3BAE3AAD39FC7802E3
:100FEC00120E49EF5433FBEE5433FAED5433F9EC53
:100FFC005433F8E53B5433FFE53A5433FEE53954AA
:10100C0033FDE5385433FCEB2FF53BEA3EF53AE97A
:10101C003DF539E83CF538AF3BAE3AAD39FC7804D8
:10102C00120E49EF253BFFEE353AFEED3539FDEC5E
:10103C003538FCEF540FF53BEE540FF53AED540FE9
:10104C00F539EC540FF538AF3BAE3AAD39FC7808B6
:10105C00120E49EF253BFFEE353AED3539FDEC35F7
:10106C0038EFF53BE4F53AEDF539E4F538AE3AAC4A
:10107C00387810120E49EF253BFFEE353AFEEFF5AE
:10108C003BEEF53AE4F539F53890642CE025E02494
:10109C0000F582E43464F583E0FEA3E0D39553EECF
:1010AC009552402490642CE0FF25E02400F582E466
:1010BC003464F583E0F552A3E0F55374FA2FF5820E
:1010CC00E43463F583E0F5649023A3E493FFE4FC3C
:1010DC00FDFEAB3BAA3AA939A838D3120E384052C0
:1010EC00AF650565D3EF94037480948050030211AF
:1010FC008DE4F565F51FF51EF51DF51C7F01FEFD54
:10110C00FCA964A801120E5C8F1B8E1A8D198C1809
:10111C00E47F01FEFDFCA801120E5C8F338E328D34
:10112C00318C30E4F552F553756420121FC44337EB
:10113C000222E4F5657F01FEFDFC90642CE0FB24AB
:10114C00FAF582E43463F583E0F9F8120E5CE51BE2
:10115C004FF51BE51A4EF51AE5194DF519E5184C26
:10116C00F518E47F01FEFDFCA803120E5CE5334F7D
:10117C00F533E5324EF532E5314DF531E5304CF5D0
:02118C0030220F
:10096200E4F5669023A7E493FFE566C39F40030284
:100972000CA0E56625E02400F582E4346085828AD5
:100982007F548F8B7E0E8E8C758903758889E56600
:1009920025E02400F582E4346085828A8F8B758C91
:1009A20012758904758889E56625E02418F582E4C4
:1009B2003460F583E0FCA3E0C3950FEC950E502E56
:1009C200E56625E0243CF582E43460F583E0FCA38F
:1009D200E0C39513EC95125015AF600560EF9402D9
:1009E20074809480400BE4F5605337FD8003E4F596
:1009F20060E53730E125E56625E02400F582E43440
:100A020064F583E4F0A3F0E56625E0240CF582E4C6
:100A12003464F583E4F0A3F0020AB0E56625E0242D
:100A220018F582E4346085828A8E8B758C0A75890A
:100A3200267588892088FDE5F130E00875F107E424
:100A4200F50AF50BAE0AE50B7802C333CE33CED8E6
:100A5200F9FFE56625E02400F582E43464F583EECF
:100A6200F0A3EFF0E56625E0243CF582E4346085EE
:100A7200828A758B12758C0A7589277588892088F8
:100A8200FDE5F130E00875F107E4F50AF50BAE0A71
:100A9200E50B7802C333CE33CED8F9FFE56625E005
:100AA200240CF582E43464F583EEF0A3EFF0E566FE
:100AB20025E02418F582E43464F583E0FEA3E078AF
:100AC20002CEC313CE13D8F9F5518E50E56625E058
:100AD2002400F582E43464F583E0FEA3E0FF902372
:100AE2009FE493FC740193FDC3EF9DEE9C4017E5D8
:100AF2006625E0240CF582E43464F583E0FEA3E08D
:100B0200C39DEE9C50028068E56625E02400F582D4
:100B1200E43464F583E0FEA3E0C39551EE955040C2
:100B22001CE56625E0240CF582E43464F583E0FEDE
:100B3200A3E0C39551EE95504003020BBC74EE2521
:100B420066F582E43463F583E004F074EE2566F51D
:100B520082E43463F583E0FF9023A4E493FEEFD3B1
:100B62009E406474EE2566F582E43463F583E4F016
:100B7200E56625E0240CF582E43460F583E0FEA30B
:100B8200E0FFE56625E02418F582E43460F583EEA3
:100B9200F0A3EFF0E56625E02430F582E43460F559
:100BA20083E0FEA3E0FFE56625E0243CF582E43421
:100BB20060F583EEF0A3EFF0800D74EE2566F5820A
:100BC200E43463F583E4F0E56625E0240CF582E481
:100BD200346085828AE56625E02400F582E434608B
:100BE20085828B758C0A7589207588CB2088FDE5F6
:100BF200F130E00875F107E4F50AF50BE56625E04A
:100C0200240CF582E4346085828A758B547F0E8FC2
:100C12008C7589237588897E0A8E8A8F8BE5662575
:100C2200E0240CF582E4346085828CE4F5897588D1
:100C320029E56625E02430F582E4346085828AE580
:100C42006625E02400F582E4346085828B8E8C7503
:100C520089207588CB2088FDE5F130E00875F10721
:100C6200E4F50AF50BE56625E02430F582E434600C
:100C720085828A758B547F0E8F8C7589247588893D
:100C8200758A0A8F8BE56625E02430F582E43460AC
:0F0C920085828CE4F5897588290566020965223B
:1013AF00E4F5669023A7E493FFE566C39F4003022D
:1013BF001567E56625E02418F582E43464F583E0CB
:1013CF00FEA3E07802CEC313CE13D8F9F5518E5099
:1013DF00E56625E02400F582E43464F583E0FEA39E
:1013EF00E0D39551EE9550402EE56625E0240CF59F
:1013FF0082E43464F583E0FEA3E0D39551EE95507B
:10140F00401574F42566F582E43463F583E4F0AF98
:10141F0066120F3C0215629023A6E493FFC3E551B9
:10142F009FFFE5509400FED3EF9400EE940040022E
:10143F0080047E007F00E56625E02400F582E43419
:10144F0064F583E0FCA3E0C39FEC9E4003021555B7
:10145F009023A6E493FFC3E5519FFFE5509400FE50
:10146F00D3EF9400EE9400400280047E007F00E5ED
:10147F006625E0240CF582E43464F583E0FCA3E0F8
:10148F00C39FEC9E400302155574E82566F582E470
:10149F003463F583E4F074F42566F582E43463F580
:1014AF0083E004F074F42566F582E43463F583E099
:1014BF00C39563500302156274F42566F582E43414
:1014CF0063F583E4F07F01FEFDFC74FA2566F58277
:1014DF00E43463F583E0F9F8120E5C120E07E51F92
:1014EF005FF51FE51E5EF51EE51D5DF51DE51C5C38
:1014FF00F51CE47F01FEFDFCA966A801120E5C122B
:10150F000E07E5335FF533E5325EF532E5315DF514
:10151F0031E5305CF530E47F01FEFDFC74FA2566A1
:10152F00F582E43463F583E0F9F8120E5C120E07CE
:10153F00E51B5FF51BE51A5EF51AE5195DF519E573
:10154F00185CF518800D74F42566F582E43463F5A4
:09155F0083E4F005660213B222D8
:101FC400E4F5669023A7E493FFE566C39F506EE5AE
:101FD4006625E02400F582E43464F583E4F0A3F09C
:101FE400E56625E0240CF582E43464F583E4F0A38B
:101FF400F0E56625E0240CF582E43460F583E0FE28
:10200400A3E0FFE56625E02418F582E43460F58357
:10201400EEF0A3EFF0E56625E02430F582E43460C9
:10202400F583E0FEA3E0FFE56625E0243CF582E4C9
:0E2034003460F583EEF0A3EFF005668086229F
:101E2100E4F5669023A7E493FFE566C39F506790AE
:101E31006048E0FF7E00C39410748094805053EF9B
:101E41009408748094804025E56625E02400F5829D
:101E5100E43460F583E0FEA3E0FFE56625E0240CB1
:101E6100F582E43460F583EE8FF0120D08E5662506
:101E7100E02400F582E43460F583E0FEA3E0FFE5B1
:101E81006625E02430F582E43460F583EE8FF012AC
:101E91000D080566808D906048E0C39410748094AD
:101EA1008040054337048006906048E004F07F01DC
:031EB100021F40CD
:10204200E4FFFEFDFCAB1BAA1AA919A818C3120EC5
:1020520038606390604AE004F07006906049E004E2
:10206200F090239BE493FE740193FF4E602ED39075
:10207200604AE09F906049E09E4021E4F0A3F0F5C1
:102082001FF51EF51DF51CF533F532F531F530F56A
:102092001BF51AF519F518C208021FC490239DE416
:1020A20093FE740193FFD390604AE09F906049E0F1
:0D20B2009E400AD20822E4906049F0A3F09D
:0120BF0022FE
:0515680090643FEFF06C
:10156D00A3E0FCA3E0FDA3E0FEA3E0F5298E288D0A
:10157D00278C267884E2F50A08E2F50B758A087542
:10158D008B26758C2275881D2088FDE4FFFEFDFCE1
:10159D00AB25AA24A923A822D3120E224006AC22E1
:1015AD00A8048013AF25AE24AD23AC22120E14ABCC
:1015BD0007AA06A905A80490604FE0FEA3E0FFE48A
:1015CD00FCFDC3120E225041E4FFFEFDFCAB25AA2B
:1015DD0024A923A822120E224006AF25AE24800B8B
:1015ED00AF25AE24AD23AC22120E1490604FEEF059
:1015FD00A3EFF090643FE025E024DCF582E4346352
:10160D00F583E0A3E090604EF0902398E493FE7490
:10161D000193FFD3906050E09F90604FE09E501B70
:10162D0090643FE025E024DCF582E43463F583E04B
:10163D00A3E090604EF090604B8079E4FFFEFDFCDE
:10164D00AB25AA24A923A822D3120E2240349064DC
:10165D003FE0FF25E024DCF582E43463F583E0FC14
:10166D00A3E0D39400EC9400404DEF25E024DCF58D
:10167D0082E43463F58374FFF5F0120D0890604C2D
:10168D00803290643FE0FF25E024DCF582E4346392
:10169D00F583E0FCA3E0C3947FEC94005019EF2593
:1016AD00E024DCF582E43463F583E475F001120D7A
:1016BD000890604D7401F090604CE064017011A3CE
:1016CD00E06401700B90604CF0A3F090604B04F05F
:1016DD0090604BE06401703590604EE0FF90643F88
:1016ED00E025E024DCF582E43463F583E4F0A3EF38
:1016FD00F074FF90604FF0A3F090604E747FF0E4B3
:0F170D0090604CF0A3F090604BF07F01227F00C2
:01171C0022AA
:1021A800E490643EF0902392120E7B7801120E5C4C
:1021B800906440120ECCAF61121568EF6022056181
:1021C800E53730E4095337EF90643E7401F090230B
:1021D800A7E493FFE561C39F4006E4F56143371028
:1021E800C39023967401939562E4939400400890F9
:1021F800643EE064017005D207022326E4FF121F43
:012208004095
:0122090022B2
:101F4000EF70607F01FEFDFC74FA2561F582E434D8
:101F500063F583E0F9F8120E5C8F178E168D158CE1
:101F600014787EE254FCF2E24514F218E515F218FA
:101F7000E516F218E517F2E56125E024DCF582E4C8
:101F80003463F583E0A3E0547FFF7878E254804F18
:101F9000F2787FE254FBF2E254FB4404F2E24401A3
:101FA000F2801CE56125E024DCF582E43463F583EE
:101FB000E0A3E0547FFF7878E254804FF2787FE22C
:041FC0004402F222C3
:101CEF00E4906424F0A3F0906424E0FEA3E0FFC32B
:101CFF009488EE94035031EF2462FFEE34098F8203
:101D0F00F583E493FF906425E02451FD906424E073
:101D1F0034608D82F583EFF0906425E004F070C796
:081D2F00906424E004F080BF81
:101D37009063D97401F0A37460F0A37451F0E4F5D3
:101D470061F537F536F535F534C207C208F51FF5E5
:101D57001EF51DF51CF533F532F531F530F51BF59C
:101D67001AF519F5189023A193FF9023A5E493FE84
:101D7700A807088002C333D8FCF563756420E4FF25
:031D8700021F40F8
:1020C0007884E2F50A08E2F50BAE0A7803CEC31372
:1020D000CE13D8F97802C333CE33CED8F9FFE561F9
:1020E00025E02400F582E43460F583EEF0A3EFF000
:1020F00020070F90239AE4937005D207022326024B
:1021000021A805619023A7E493FFE561C39F401FC9
:10211000787FE254FBF2E254FB4404F2E24401F221
:10212000E4F561E53720E203021E21433701227FF7
:0521300001121F402216
:052722000562022042E7
:10248D00E53730E01A9063D9A3E0FAA3E0F9120F13
:10249D00091213AFE4F5617F01121F405337FE227D
:101EC000020027E493A3F8E493A34003F68001F211
:101ED00008DFF48029E493A3F85407240CC8C33323
:101EE000C4540F4420C8834004F456800146F6DFF2
:101EF000E4800B0102040810204080902135E47E2C
:101F0000019360BCA3FF543F30E509541FFEE493E6
:101F1000A360010ECF54C025E060A840B8E493A3AD
:101F2000FAE493A3F8E493A3C8C582C8CAC583CAD8
:101F3000F0A3C8C582C8CAC583CADFE9DEE780BE90
:0121A7000037
:100CA100EF8DF0A4A8F0CF8CF0A428CE8DF0A42E67
:020CB100FE2221
:100CB300BC000BBE0029EF8DF084FFADF022E4CC25
:100CC300F875F008EF2FFFEE33FEEC33FCEE9DECEE
:100CD300984005FCEE9DFE0FD5F0E9E4CEFD22ED34
:100CE300F8F5F0EE8420D21CFEADF075F008EF2F7E
:100CF300FFED33FD4007985006D5F0F222C398FD6F
:050D03000FD5F0EA220B
:100D0800C5F0F8A3E028F0C5F0F8E5821582700276
:060D18001583E038F02213
:0D0D1E00EF2BFFEE3AFEED39FDEC38FC2224
:0E0D2B00C3EF9BFFEE9AFEED99FDEC98FC22C3
:100D390075F008758200EF2FFFEE33FECD33CDCC71
:100D490033CCC58233C5829BED9AEC99E5829840F4
:100D59000CF582EE9BFEED9AFDEC99FC0FD5F0D6D1
:100D6900E4CEFBE4CDFAE4CCF9A88222B800C1B9FB
:100D79000059BA002DEC8BF084CFCECDFCE5F0CB39
:100D8900F97818EF2FFFEE33FEED33FDEC33FCEB72
:100D990033FB10D703994004EB99FB0FD8E5E4F92D
:100DA900FA227818EF2FFFEE33FEED33FDEC33FC1A
:100DB900C933C910D7059BE99A4007EC9BFCE99A0E
:100DC900F90FD8E0E4C9FAE4CCFB2275F010EF2F53
:100DD900FFEE33FEED33FDCC33CCC833C810D70753
:100DE9009BEC9AE899400AED9BFDEC9AFCE899F88E
:0E0DF9000FD5F0DAE4CDFBE4CCFAE4C8F92221
:0D0E0700CFF4CFCEF4CECDF4CDCCF4CC2280
:0E0E1400C3E49FFFE49EFEE49DFDE49CFC22EF
:100E2200EB9FF5F0EA9E42F0E99D42F0EC6480C847
:060E320064809845F022E7
:100E3800EB9FF5F0EA9E42F0E99D42F0E89C45F010
:010E48002287
:100E4900E8600FECC313FCED13FDEE13FEEF13FF87
:030E5900D8F122AB
:100E5C00E8600FEFC333FFEE33FEED33FDEC33FCF4
:030E6C00D8F12298
:0C0E6F00E0FCA3E0FDA3E0FEA3E0FF22F6
:100E7B00E493FC740193FD740293FE740393FF22BD
:0C0E8B00E0F8A3E0F9A3E0FAA3E0FB22EA
:100E97007401FF3395E0FEFDFCA3A3A3E0CF2FF081
:100EA700E582158270021583E0CE3EF0E582158259
:100EB70070021583E0CD3DF0E5821582700215833F
:050EC700E0CC3CF0222C
:0C0ECC00ECF0A3EDF0A3EEF0A3EFF02299
:100ED800A8828583F0D083D082120EEF120EEF1213
:100EE8000EEF120EEFE473E493A3C583C5F0C58338
:100EF800C8C582C8F0A3C583C5F0C583C8C582C864
:010F080022C6
:060F09008A838982E47373
:100F0F00EC8EF0A4CCC5F0CCCDF8EFA4CEC5F02D6F
:100F1F00FDE43CFCE8A42EC8C5F03DFDE43CFCEF2D
:0D0F2F00A4FFE5F028FEE43DFDE43CFC22BB
:00000001FF
